S00B00005357432E737265632C
S113000049C0000057C0000055C0000053C00000A4
S113001051C000004FC000004DC000004BC00000A4
S113002049C0000047C0000045C0000043C00000B4
S113003041C000003FC000003DC000003BC00000C4
S113004081C1000037C0000035C0000033C000008B
S113005031C000002FC000002DC000002BC00000E4
S113006029C0000027C0000025C0000023C00000F4
S113007021C000001FC000001DC000001BC0000004
S113008019C0000017C0000015C0000013C0000014
S113009011C0000011241FBECFEFD0E1DEBFCDBFE1
S11300A021E0A0E0B1E001C01D92A131B207E1F767
S11300B021D18DC1A5CF883078F02091DD0030E0CA
S11300C08850A90102C0559547958A95E2F7CA015F
S11300D051E08527817008952091DC0030E0A9016A
S11300E002C0559547958A95E2F7CA0151E08527E4
S11300F0817008953F924F925F926F927F928F9298
S11301009F92AF92BF92CF92DF92EF92FF920F93A2
S11301101F93CF93DF931092D80020E030E0EDEEF0
S1130120F0E00F2EFEEECF2ED12CF02D0F2EFFEE91
S1130130EF2EF12CF02D00EF10E061EF70E042EFB4
S113014050E00F2EF4EFAF2EB12CF02D0F2EF5EF63
S11301508F2E912CF02D0F2EF6EF6F2E712CF02D8B
S11301600F2EF7EF4F2E512CF02DAAEFB0E0C9015E
S113017082959295907F9827807F9827982F9860F2
S11301809083E6011882E7011882E8011882EB01E6
S11301901882EA011882C3EFD0E01882E5011882C0
S11301A0E4011882E3011882E201188290E0886079
S11301B0382E392A30821C929F5F9830C9F72F5FFE
S11301C03F4F2F30310599F61092E2008CE0809376
S11301D0E30086E38093E4001092DB00E8EDF0E0B6
S11301E0808182608083DF91CF911F910F91FF9076
S11301F0EF90DF90CF90BF90AF909F908F907F90C3
S11302006F905F904F903F900895CF93DF93EC01F0
S1130210FB0120E04DEE50E06AEF70E08C8130E1AC
S1130220839FC00111248860822BDA018C93819111
S1130230DB018C932F5F283089F78C818295807F36
S11302408093ED008C8137DF882321F1EEEEF0E01E
S1130250108288819981969587959695879596952C
S113026087958093F30088818295880F807E8093A0
S1130270F2001092F1001092F0001092F700109228
S1130280F6001092F5001092F400108288E4809336
S1130290EF001082DF91CF910895CF93DF9383B164
S11302A080958F7079D0C4E0D1E0888383B1829542
S11302B08F70809571D0898386B1809581708A838F
S11302C086B190E080959095869581708B8386B1F8
S11302D090E08095909582FB882780F98C8386B185
S11302E090E08095909583FB882780F98D83DF913A
S11302F0CF9108954CD063D0FDDEECE0F1E080E0D6
S113030091E0918380831382128214827894809185
S1130310000190910101A0910201B09103010B979A
S1130320A105B105A0F310920001109201011092F1
S1130330020110920301B1DF64E071E08CE091E00E
S113034064DFE5CF1F920F920FB60F9211248F93A3
S11303509F93AF93BF938091000190910101A0916D
S11303600201B09103010196A11DB11D809300010A
S113037090930101A0930201B0930301BF91AF9147
S11303809F918F910F900FBE0F901F9018958FEF34
S113039085B98FE088B90895382F3870932F9695D2
S11303A098279470292F232B922F96959827927033
S11303B0922B292F269582278170892B08958BE013
S11303C084BD82E080936E0089EF87BD0895F89420
S10503D0FFCF59
S9030000FC
