:1000000049C0000057C0000055C0000053C00000A8
:1000100051C000004FC000004DC000004BC00000A8
:1000200049C0000047C0000045C0000043C00000B8
:1000300041C000003FC000003DC000003BC00000C8
:10004000A9C1000037C0000035C0000033C0000067
:1000500031C000002FC000002DC000002BC00000E8
:1000600029C0000027C0000025C0000023C00000F8
:1000700021C000001FC000001DC000001BC0000008
:1000800019C0000017C0000015C0000013C0000018
:1000900011C0000011241FBECFEFD0E1DEBFCDBFE5
:1000A00021E0A0E0B1E001C01D92A531B207E1F767
:1000B00000D195C1A5CF883078F02091DD0090E087
:1000C000089730E002C0359527958A95E2F781E0E0
:1000D00020FF0DC080E008952091DC0030E002C0D8
:1000E000359527958A95E2F781E020FD80E0089517
:1000F0001092D80040E029C080E1489F900111246F
:10010000822F88608093ED001092EE001092EF0035
:100110001092F0001092F1001092F2001092F30091
:100120001092F4001092F5001092F6001092F70071
:1001300080E008C0982F922B98609093ED00109269
:10014000FA008F5F8830B0F34F5F4F30A8F2109203
:10015000E2008CE08093E30086E38093E400109259
:10016000DB00E8EDF0E08081826080830895CF932A
:10017000DF93EC0120E010C08C8130E1839FC0014F
:100180001124822B88608093ED00FB01E20FF11DAA
:1001900080818093FA002F5F283070F38C818295E4
:1001A000807F8093ED008C8186DF882321F1EEEE45
:1001B000F0E010828881998196958795969587952C
:1001C000969587958093F30088818295880F807E2D
:1001D0008093F2001092F1001092F0001092F7005C
:1001E0001092F6001092F5001092F400108288E44C
:1001F0008093EF001082DF91CF910895CF93DF932A
:1002000083B180958F70A6D0C8E0D1E0888383B198
:1002100090E080959095959587959595879595957E
:1002200087959595879596D0898390B181E08927A8
:1002300081708A8380B190E080959095959587959F
:1002400081708B8380B190E080959095959587958E
:100250009595879581708C8380B190E0809590957D
:1002600095958795959587959595879581708D83BB
:1002700080B190E080959095959587959595879517
:10028000959587959595879581708E8380B190E03F
:100290008095909595958795959587959595879552
:1002A000959587959595879581708F83DF91CF91EF
:1002B0000895789446D061D01BDFE0E1F1E080E062
:1002C00091E09183808313821282148280910401D1
:1002D00090910501A0910601B09107010B97A1052E
:1002E000B105A0F3109204011092050110920601CD
:1002F0001092070183DF68E071E080E191E037DF71
:100300008091000190910101A0910201B09103013F
:100310000196A11DB11D8093000190930101A0934E
:100320000201B09303010B97A105B10578F22DD01E
:10033000109200011092010110920201109203012B
:10034000C5CF11B89FEF92B987B1856087B914B84E
:1003500095B90895382F3870932F969598279470F3
:10036000292F232B922F969598279270922B292F25
:10037000269582278170892B08958BE084BD82E0C9
:1003800080936E0089EF87BD089598B184E0892736
:1003900088B908951F920F920FB60F9211248F9370
:1003A0009F93AF93BF938091040190910501A09119
:1003B0000601B09107010196A11DB11D80930401B2
:1003C00090930501A0930601B0930701BF91AF91EF
:1003D0009F918F910F900FBE0F901F901895F894DA
:0203E000FFCF4D
:00000001FF
